:020000040800F2
:1000000000000220090A0008FD09000895570008B1
:10001000FD090008FD090008FD09000800000000B6
:10002000000000000000000000000000FD090008C2
:10003000FD09000800000000FD090008195700082C
:10004000FD090008FD090008FD090008FD09000878
:10005000FD090008FD090008FD090008FD09000868
:10006000FD090008FD090008FD090008015300080A
:100070000D530008FD090008195300082553000816
:100080007509010831440008FD090008FD09000850
:10009000FD090008FD090008FD090008FD09000828
:1000A000FD090008FD090008FD090008FD09000818
:1000B000F5FA000801FB00080DFB00086544000884
:1000C000FD09000871440008FD0900083DF300081F
:1000D00049F30008A9070108D50701080908010824
:1000E000FD090008FD09000800000000FD090008E6
:1000F000FD090008FD090008FD090008FD090008C8
:10010000FD090008FD09000819FB000855F3000867
:100110003D08010871080108FD090008FD090008F3
:10012000FD090008FD09000879F30008ADF3000897
:10013000A9090108FD090008FD090008FD090008DA
:1001400000000000000000000000000000000000AF
:10015000FD090008FD090008FD090008A5080108BF
:100160007D440008FD090008295700084D57000884
:10017000FD09000871570008FD090008FD09000885
:10018000FD090008FD090008D90801080D0901084A
:1001900061F300086DF30008FD090008FD0900087F
:1001A000FD090008FD090008FD090008FD09000817
:1001B000F54F0008FD090008FD090008FD090008C9
:1001C000FD090008FD090008FD090008FD090008F7
:1001D000FD090008FD090008FD090008FD090008E7
:1001E000FD090008FD090008FD090008FD090008D7
:1001F000FD090008FD090008FD090008FD090008C7
:10020000FD090008FD090008FD090008FD090008B6
:10021000FD090008FD090008FD090008FD090008A6
:10022000FD090008FD090008FD09000800000000A4
:10023000FD090008FD09000800000000FD09000894
:10024000FD090008FD090008FD090008FD09000876
:10025000FD090008FD090008FD090008FD09000866
:10026000FD090008FD090008FD090008FD09000856
:10027000FD090008FD09000841090108000000000F
:10028000FD090008FD090008FD0900080000000044
:0802900000000000FD09000858
:1002A00010B5054C237833B9044B13B10448AFF3B0
:1002B00000800123237010BDF00300240000000023
:1002C0000460010808B5034B1BB103490348AFF3B1
:1002D000008008BD00000000F40300240460010851
:1002E00001F0FF01102A2BDB10F0070F08D010F8E7
:1002F000013B013A8B422DD010F0070F42B3F6D1EB
:10030000F0B441EA012141EA014122F007047FF003
:1003100000070023F0E80256083C85EA010586EA5A
:10032000010685FA47F5A3FA87F586FA47F6A5FA96
:1003300087F68EB9EED1F0BC01F0FF0102F00702A2
:1003400032B110F8013B013A83EA010313B1F8D14D
:100350000020704701387047002D06BF354603382E
:10036000073815F0010F07D1013015F4807F02BF67
:10037000013015F4C03F0130F0BC0138704700BFB8
:1003800081F0004102E000BF83F0004330B54FEA46
:1003900041044FEA430594EA050F08BF90EA020FB3
:1003A0001FBF54EA000C55EA020C7FEA645C7FEA46
:1003B000655C00F0E2804FEA5454D4EB5555B8BF69
:1003C0006D420CDD2C4480EA020281EA030382EADA
:1003D000000083EA010180EA020281EA0303362D6C
:1003E00088BF30BD11F0004F4FEA01314FF4801C3F
:1003F0004CEA113102D0404261EB410113F0004F51
:100400004FEA03334CEA133302D0524263EB430307
:1004100094EA050F00F0A780A4F10104D5F1200EA5
:100420000DDB02FA0EFC22FA05F2801841F1000100
:1004300003FA0EF2801843FA05F359410EE0A5F1D4
:1004400020050EF1200E012A03FA0EFC28BF4CF005
:10045000020C43FA05F3C01851EBE37101F00045BB
:1004600007D54FF0000EDCF1000C7EEB00006EEBC8
:100470000101B1F5801F1BD3B1F5001F0CD3490852
:100480005FEA30004FEA3C0C04F101044FEA4452A9
:1004900012F5800F80F09A80BCF1004F08BF5FEA30
:1004A000500C50F1000041EB045141EA050130BD10
:1004B0005FEA4C0C404141EB0101013C28BFB1F522
:1004C000801FE9D291F0000F04BF01460020B1FA6D
:1004D00081F308BF2033A3F10B03B3F120020CDA40
:1004E0000C3208DD02F1140CC2F10C0201FA0CF01E
:1004F00021FA02F10CE002F11402D8BFC2F1200C83
:1005000001FA02F120FA0CFCDCBF41EA0C01904038
:10051000E41AA2BF01EB0451294330BD6FEA040481
:100520001F3C1CDA0C340EDC04F11404C4F120026C
:1005300020FA04F001FA02F340EA030021FA04F37E
:1005400045EA030130BDC4F10C04C4F1200220FAD5
:1005500002F001FA04F340EA0300294630BD21FA13
:1005600004F0294630BD94F0000F83F4801306BFD9
:1005700081F480110134013D4EE77FEA645C18BFCD
:100580007FEA655C29D094EA050F08BF90EA020F64
:1005900005D054EA000C04BF1946104630BD91EA5C
:1005A000030F1EBF0021002030BD5FEA545C05D15F
:1005B0004000494128BF41F0004130BD14F580049E
:1005C0003CBF01F5801130BD01F0004545F0FE4112
:1005D00041F470014FF0000030BD7FEA645C1ABF47
:1005E000194610467FEA655C1CBF0B46024650EA7E
:1005F000013406BF52EA033591EA030F41F40021AA
:1006000030BD00BF90F0000F04BF0021704730B52F
:100610004FF4806404F132044FF000054FF0000104
:1006200050E700BF90F0000F04BF0021704730B5C5
:100630004FF4806404F1320410F0004548BF40429A
:100640004FF000013EE700BF42004FEAE2014FEAEF
:1006500031014FEA02701FBF12F07F4393F07F4FCA
:1006600081F06051704732F07F4208BF704793F0CD
:100670007F4F04BF41F40021704730B54FF46074E0
:1006800001F0004521F000411CE700BF50EA0102E3
:1006900008BF704730B54FF000050AE050EA01028C
:1006A00008BF704730B511F0004502D5404261EBFC
:1006B00041014FF4806404F132045FEA915C3FF43D
:1006C000D8AE4FF003025FEADC0C18BF03325FEADA
:1006D000DC0C18BF033202EBDC02C2F1200300FA8B
:1006E00003FC20FA02F001FA03FE40EA0E0021FAB0
:1006F00002F11444BDE600BF53B94AB9002908BF4E
:1007000000281CBF4FF0FF314FF0FF3000F074B9EC
:10071000ADF1080C6DE904CE00F006F8DDF804E058
:10072000DDE9022304B070472DE9F047089D044637
:100730008E46002B4DD18A42944669D9B2FA82F294
:1007400052B101FA02F3C2F1200120FA01F10CFAD0
:1007500002FC41EA030E94404FEA1C48210CBEFB08
:10076000F8F61FFA8CF708FB16E341EA034306FB91
:1007700007F199420AD91CEB030306F1FF3080F020
:100780001F81994240F21C81023E63445B1AA4B26D
:10079000B3FBF8F008FB103344EA034400FB07F70F
:1007A000A7420AD91CEB040400F1FF3380F00A8150
:1007B000A74240F207816444023840EA0640E41B45
:1007C00000261DB1D4400023C5E900433146BDE8F1
:1007D000F0878B4209D9002D00F0EF800026C5E993
:1007E000000130463146BDE8F087B3FA83F6002EAB
:1007F0004AD18B4202D3824200F2F980841A61EB23
:10080000030301209E46002DE0D0C5E9004EDDE740
:1008100002B9FFDEB2FA82F2002A40F09280A1EB28
:100820000C014FEA1C471FFA8CFE0126200CB1FB7D
:10083000F7F307FB131140EA01410EFB03F0884276
:1008400008D91CEB010103F1FF3802D2884200F203
:10085000CB804346091AA4B2B1FBF7F007FB101195
:1008600044EA01440EFB00FEA64508D91CEB040433
:1008700000F1FF3102D2A64500F2BB800846A4EB8E
:100880000E0440EA03409CE7C6F12007B34022FA79
:1008900007FC4CEA030C20FA07F401FA06F31C43A8
:1008A000F9404FEA1C4900FA06F3B1FBF9F8200CB5
:1008B0001FFA8CFE09FB181140EA014108FB0EF0FB
:1008C000884202FA06F20BD91CEB010108F1FF3A4B
:1008D00080F08880884240F28580A8F10208614457
:1008E000091AA4B2B1FBF9F009FB101144EA014165
:1008F00000FB0EFE8E4508D91CEB010100F1FF3410
:100900006CD28E456AD90238614440EA0840A0FBA7
:100910000294A1EB0E01A142C846A64656D353D07D
:100920005DB1B3EB080261EB0E0101FA07F722FAA1
:1009300006F3F1401F43C5E9007100263146BDE8CA
:10094000F087C2F12003D8400CFA02FC21FA03F32D
:10095000914001434FEA1C471FFA8CFEB3FBF7F0AE
:1009600007FB10360B0C43EA064300FB0EF69E42D3
:1009700004FA02F408D91CEB030300F1FF382FD26C
:100980009E422DD9023863449B1B89B2B3FBF7F614
:1009900007FB163341EA034106FB0EF38B4208D9ED
:1009A0001CEB010106F1FF3816D28B4214D9023E2E
:1009B0006144C91A46EA004638E72E46284605E74C
:1009C0000646E3E61846F8E64B45A9D2B9EB02081D
:1009D00064EB0C0E0138A3E74646EAE7204694E7AD
:1009E0004046D1E7D0467BE7023B614432E73046E0
:1009F00009E76444023842E7704700BF684620F0C8
:100A000007018D46FEE700BF0B480C4A904208B52F
:100A100003D0121A0A4912F079FF0A480A4A904292
:100A200003D0121A002112F07FFF05F019F912F01D
:100A300041FF01F0F9FAFEE700000024F003002472
:100A400038600108F0030024203E0024704700BFF6
:100A5000704700BF704700BF0269034641684FEA14
:100A6000620C01EB6200D20701D4DB68184751F831
:100A70000C20DB68D35818470269034641684FEAE7
:100A8000620C01EB6200D20701D4DB68184751F811
:100A90000C20DB68D3581847806800B170470148C4
:100AA000704700BFD0410108806800B1704701481D
:100AB000704700BFD0410108704700BF4020704719
:100AC0008020704749424FF480621030C9B212F062
:100AD0002BBF00BF0120704782B32DE9F0470F46BE
:100AE00091460026DFF864A0DFF86480DAF8203051
:100AF0000BB3134D00249FED130A55F8040F013476
:100B000003681B689847DAF82030A342F5D80E48EE
:100B100088ED000A01F056FCD8F80010D7E9002350
:100B200002EB860203EB860301361160B1451960C2
:100B3000DCD1BDE8F0879FED030AE8E7704700BF0E
:100B40000804002400000000300400240C040024E9
:100B5000EC0C002410B5044680ED020A12F084FC6F
:100B600084ED070A10BD00BF10B504464FF4826142
:100B700012F085FC204610BDD0E9212103462AB1A0
:100B80004068CB0700EB610005D41047C80705D5C6
:100B9000586800EB610003689A581047D3F890201A
:100BA00059684FEA620C01EB6200D20702D4D3F815
:100BB0008C30184751F80C20D3F88C30D358F8E714
:100BC000D0E9212103462AB14068CB0700EB610040
:100BD00005D41047C80705D5586800EB61000368C5
:100BE0009A581047D3F8902059684FEA620C01EBED
:100BF0006200D20702D4D3F88C30184751F80C2089
:100C0000D3F88C30D358F8E72DE9F04F4FF0B00807
:100C100085B0054600F1080700F18F0600F28F4904
:100C20004FF47A7B4FF0000A297B022303AA38464F
:100C3000CDF800B0A6F180048DF80CA08DF80D80E1
:100C400003F0BAFC297B022303AA3846CDF800B092
:100C50008DF80CA08DF80DA003F0AEFC4FF0100C39
:100C6000297B022303AA3846CDF800B08DF80CA0EA
:100C70008DF80DC003F0A0FC4FF47A7014F801CF8A
:100C80004FF0400E297B0223009003AA38468DF8CE
:100C90000CE08DF80DC003F08FFCB442ECD104F1F0
:100CA000800608F101084E455FFA88F8B8D105B012
:100CB000BDE8F08F2DE9F04F89B008AC9DF8487081
:100CC000019104E90C000B78002B00F0AB801A4670
:100CD0009DF818809DF819300646454690460393C6
:100CE000079B0593A8F12004E3B25E2B00F29E80DF
:100CF00033685E4ADB68934240F09B808020B38873
:100D00002B44834200F392803368594A9B68934294
:100D100040F092804020F188039A02918B18834220
:100D200000F38480002A00F0918002FB04F46FF04D
:100D30000049059BA1441444B6F804B003EB4909EB
:100D4000023BCDF8108003EB44030C469A4639F879
:100D500002CFA5B304F007034FF0010EE208594695
:100D60000EFA03FE0BF110034FFA8EFE03EBC212D4
:100D700000236FEA0E0832440DE07F2906D83F2C8D
:100D800004D8107897B14EEA000010700133013298
:100D90000131AB4213D00CFA03F00004EDD47F29EB
:100DA000F4D83F2CF2D81078002FECD0013308EAA9
:100DB000000001320131AB4202F8010CEBD1D14508
:100DC00004F10104C3D1DDF8108032680BEB050497
:100DD0002649D368A4B28B4234D18020844204D304
:100DE000D36822498B423AD17F249368204AB48049
:100DF000934224D14020029B834206D333681C4A8D
:100E00009B68934225D13F230293029BF380019B71
:100E10001878404507D113F8018F0193B8F1000FFE
:100E20007FF460AF002009B0BDE8F08F4FF00008FC
:100E3000EDE73046984762E7304698476BE7304623
:100E40009847D8E7304698473268C7E7B6F804B005
:100E5000BBE730469847013883B20293D5E7304666
:100E600098470138326884B2BFE700BFC10A000862
:100E7000BD0A00082DE9F04F85B0A1F1200504ACB2
:100E80009DF83870009104E90C00EBB25E2B00F283
:100E90009580036880465D4ADB689DF80840934270
:100EA0009DF8096040F094808020B8F80430234415
:100EB000834200F38380D8F80030554A9B68934200
:100EC00040F088804020B8F80620931901928342B0
:100ED00074DC002E00F0898006FB05F56FF0004001
:100EE000039B964628442E44B8F804A003EB400028
:100EF000023B03EB460B30F8026FBCB30EF0070366
:100F00004FF0010C4FEADE0251460CFA03FC0AF1E5
:100F100010034FFA8CFC03EBC21200236FEA0C099A
:100F200042440EE07F2907D8BEF13F0F04D8157860
:100F30009FB14CEA050515700133013201319C4225
:100F400014D006FA03F52D04ECD47F29F4D8BEF1B1
:100F50003F0FF1D81578002FEBD0013309EA0505D2
:100F6000013201319C4202F8015CEAD158450EF190
:100F7000010EC0D1D8F8003054442449DA68A4B234
:100F80008A422DD1802084421CD29B68204AA8F836
:100F90000440934221D14020019B834207D3D8F8DB
:100FA00000301B4A9B68934229D13F230193DDE91E
:100FB0000003A8F8063005B0BDE8F08F002005B0AA
:100FC000BDE8F08FDA6811498A4211D17F24DCE74D
:100FD00098476AE74046984775E740469847DBE7F9
:100FE00040469047D8F80030CDE7B8F804A0C1E7F4
:100FF000404690470138D8F8003084B2C5E74046F3
:101000009847013883B20193D1E700BFC10A0008B5
:10101000BD0A00082DE9F04F89B01D4688460690AC
:101020001046129C10F8013B13999DF850600092F5
:1010300033B1002210F8013B0132002BFAD193B2F8
:101040002A78687812FB03F302B21BB223EAE37337
:10105000082900F2A981DFE811F002011401200142
:10106000340142015001670171010900A1882788FC
:101070000F44B4F90610FF1A0029BFB2C0F2FF8076
:10108000B4F802C006980CEB6104C280A4EB5202D3
:101090008380078094B24480A64AD8F80030114675
:1010A0000192DA688A4240F08D818020B84205D8EA
:1010B000DA6801998A4240F09A817F279E4A9B68AC
:1010C000A8F804709342039240F089814020A04226
:1010D00007D8D8F80030039A9B68934240F0828189
:1010E0003F24009BA8F8064093F800B06B782C785A
:1010F00004936B680793BBF1000F00F0AC80ABF179
:101100002005EBB25E2B00F22E81D8F80030019A58
:10111000DB68934240F02A818020B8F804302344F1
:101120009842C0F22081D8F80030039A9B6893421D
:1011300040F01F814020B8F80610049A02918B18E5
:101140009842C0F21081002A00F01E8102FB05F5D2
:101150006FF0004E079BAE441544CDF814B003EB7E
:101160004E0E023BB8F804A003EB45030D469B4628
:101170003EF8027FA4B305F007034FF0010CEA0824
:1011800051460CFA03FC0AF110034FFA8CFC03EBF6
:10119000C21200236FEA0C0942440DE07F2906D8F1
:1011A0003F2D04D8107896B14CEA0000107001333E
:1011B000013201319C4213D007FA03F00004EDD450
:1011C0007F29F4D83F2DF2D81078002EECD00133CF
:1011D00009EA0000013201319C4202F8010CEBD116
:1011E000F34505F10105C3D1DDF814B0D8F80020AE
:1011F0000AEB04050199D368ADB28B4240F0BF8081
:101200008020854205D3D36801998B4240F0C58088
:101210007F259368039AA8F80450934240F0AC806D
:101220004020029B834208D3D8F80030039A9B6881
:10123000934240F0AC803F230293029BA8F8063013
:10124000009A13785B4506D112F801BF0092BBF1FA
:10125000000F7FF454AF069809B0BDE8F08FB4F9E1
:10126000041027880029B8BF013107EB6107B4F9E2
:101270000610A7EB63070029BFB2BFF601AF01312B
:10128000FEE6B4F900700699B4F902400F80BFB2CF
:101290004C80A4B28B80CA80FEE6B4F90410278883
:1012A0000029B4F90240B8BF013107EB6107069984
:1012B0008B80A7EB63034C80A4B29FB2CA800F80DF
:1012C000EAE6A1882788B4F902400F4406998B808A
:1012D000FB1A4C80A4B29FB2CA800F80DCE6E7887C
:1012E00061883944B4F90070081A069984B20F80F5
:1012F0008B80BFB2CA804C80CEE6B4F90410278838
:101300000029B8BF013107EB6107A7EB6307B4F809
:1013100002C0BFB2E488069964448B80201ACA8058
:101320000F8084B24C80B7E62788A1880F44FF1A4B
:10133000EDE700BFC10A0008BD0A0008B4F90610B5
:10134000B4F802C00029B4F900700698B8BF0131A2
:10135000C2800CEB610407808380BFB2A4EB520211
:1013600094B2448098E64FF0000B69E740469847F6
:10137000D3E640469847DEE64046984751E7404668
:101380009847D8F800203CE7B8F804A02EE740467C
:101390009847013883B202934FE740469847013897
:1013A000D8F8002085B234E7D8F800300024069A37
:1013B0001249148054809480D480DA6801918A4262
:1013C00005D0274640469047D8F800306EE69B6827
:1013D0000B4AA8F80440934203923FF482AE404681
:1013E000984774E640469847013884B279E640460B
:1013F00090470138D8F8003087B25FE6C10A00088C
:10140000BD0A00087F291ED83F2A1CD86BB1D3081B
:101410004FF0010C02F0070201EBC3130CFA02F2C9
:10142000C1180B7C1A430A747047D3084FF0010CA3
:1014300002F0070201EBC3130CFA02FCC1180A7C8C
:1014400022EA0C020A7470472DE9F04F83B05C1A4F
:101450000C9E002C9DF83490A6EB0208B8BF6442A5
:10146000B8F1000FB8BFC8F100088B428CBF4FF035
:10147000010A4FF0FF3A9642A4EB080C51D84FF006
:10148000FF357F2B019512D83F2E10D8F50806F0B6
:10149000070E012703EBC5150544B9F1000F47D02E
:1014A00007FA0EF795F810E047EA0E072F749642F8
:1014B00001D18B4229D0C8F100077F2914D83F2AD7
:1014C00012D8D50802F0070B4FF0010E01EBC5153D
:1014D0000544B9F1000F1BD00EFA0BFE95F810B0C1
:1014E0004EEA0B0E85F810E0B7EB4C0F4FEA4C05B7
:1014F00002DAACEB080C5144AC4202DD019DA4447D
:101500002A449942D9D19642D7D103B0BDE8F08F91
:101510000EFA0BFB95F810E02EEA0B0E85F810E0A2
:10152000E2E701257F2B0195C5D83F2EAED9C2E752
:1015300007FA0EFE2F7C964227EA0E072F74B8D0CA
:10154000B9E700BF000000002DE9F04F2DED068B3C
:1015500083B01F4680460D469DF8503016460193D5
:10156000139B002BC0F22182129A134406EE103A0C
:10157000DDED127AB8EEC66B9FEDCD4BB8EEE77B92
:101580009FEDCD5B27EE047B26EE046B87EE050B0B
:1015900086EE05ABF7EEC08BB0EE680A11F074FF73
:1015A00007EE907AB7EECAABF8EE679AB0EE408AD3
:1015B000B0EE680A12F064F860EE698AB0EE4A0A8A
:1015C00011F062FFB0EE409AB0EE4A0A12F058F8FD
:1015D00020EE690A29EE888A29EE899A70EE687AE7
:1015E000F0EE006A39EE487A67EEA77AE7EE077AFE
:1015F000F4EEE67AF1EE10FA06D5139BB42B40F325
:1016000096804FF0010901E04FF000090124784273
:101610004FF0000C0095E31B214627462246A340CD
:10162000B9F1000F6AD1424206EE90CACCF1000136
:1016300007EE102AB8EEE66A07EE901A06EE900A58
:10164000B8EEC77A139A66EE084AF8EEE77AB42A3B
:1016500027EE284AF8EEE66A67EE885A74EEC43A36
:1016600026EEA85A26EE096A66EE806A67EE897A47
:1016700027EE007AF5EEC03A40F3F280F1EE10FA70
:1016800000F17F8176EE473A74EEC54AF5EEC03A36
:10169000F1EE10FAF5EEC04ACCBF01220022F1EEC5
:1016A00010FA00F1778136EE666A35EEC55AB5EE6E
:1016B000C06AF1EE10FAB5EEC05ACCBF012100218C
:1016C000F1EE10FA00F16F8177EEE66AF5EEC06A8E
:1016D000F1EE10FACCBF0127002775EEC45AF5EEE3
:1016E000C05AF1EE10FA00F1478177EEC77AF5EEB5
:1016F000C07AF1EE10FACCBF01240024002A40F099
:101700008A80002964D1BFB9C4BB9C4558DB0CF169
:10171000010C03EB4C0E1CEB000F0EF1010E00F060
:10172000C08098424FDB734600287FF779AF03B043
:10173000BDEC068BBDE8F08F009DA6EB0C0E00EB18
:10174000050ABAF17F0FDFD8BEF13F0FDCD84FEAB0
:10175000DE0B019D0AEBCB1A002D00F0B1800EF0DC
:10176000070BC2444FF0010E0EFA0BFE9AF810B0B0
:101770004EEA0B0E8AF810E0002CC6D0009DA6EBB6
:101780000C0EA5EB000ABAF17F0FBED8BEF13F0FD9
:10179000BBD84FEADE0B019D0AEBCB1A002D00F0FF
:1017A000AE800EF0070BC2444FF0010E9C450EFABE
:1017B0000BFE9AF810B04EEA0B0E8AF810E0A6DA8B
:1017C00098429E46AFDA01300EEB40030133ABE79F
:1017D000009D0CEB060E00EB050ABAF17F0F92D8C4
:1017E000BEF13F0F8FD84FEADE0B019D0AEBCB1AFB
:1017F000002D73D00EF0070BC2444FF0010E0EFA0D
:101800000BFE9AF810B04EEA0B0E8AF810E0002F8B
:101810003FF47AAF90E7009D0CEB060EA5EB000AB3
:10182000BAF17F0F3FF66DAFBEF13F0F3FF669AFE4
:101830004FEADE0B019D0AEBCB1A002D6DD00EF0A6
:10184000070BC2444FF0010E0EFA0BFE9AF810B0CF
:101850004EEA0B0E8AF810E000293FF454AFB7E7C8
:10186000F1EE10FA7ED44A4674EEC54AF5EEC04A4F
:10187000F1EE10FA6CD4002135EEC55AB5EEC05A1F
:10188000F1EE10FA5AD4002775EEC45AF5EEC05A9C
:10189000F1EE10FA3FF529AF0024002A3FF431AFF2
:1018A000B9E798428FDB00233BE700BFAFF300802E
:1018B0007A008BFCFA21094000000000008066409D
:1018C000C2444FF0010B0EF0070E0BFA0EFE9AF811
:1018D00010B02BEA0E0E8AF810E015E7C2444FF064
:1018E000010B0EF0070E0BFA0EFE9AF810B02BEA61
:1018F0000E0E8AF810E0002F3FF406AF1CE7C2443A
:101900004FF0010B0EF0070E0BFA0EFE9AF810B016
:101910002BEA0E0E8AF810E0F7E6C2444FF0010BF6
:101920000EF0070E0BFA0EFE9AF810B02BEA0E0E10
:101930008AF810E000293FF4E6AE49E777EEE66A60
:10194000F5EEC06AF1EE10FACCBF012700279BE745
:1019500036EE666AB5EEC06AF1EE10FACCBF012130
:10196000002189E776EE473AF5EEC03AF1EE10FA3B
:10197000CCBF0122002277E70124002A3FF4C1AE48
:1019800049E774EEC54A0122F5EEC04AF1EE10FABD
:101990007FF589AE35EEC55A0121B5EEC05AF1EE9C
:1019A00010FA7FF591AE012797E6DDE91223134483
:1019B00006EE102A1293139B5B421393D8E500BFE7
:1019C0002DE9F04F87B09DF84850109C2E460195A8
:1019D0009DF844509EB399422ED89946A24228D8E9
:1019E0007F29164694BF0023012308E09CF810804D
:1019F0004EEA080E8CF810E00136B44219D33F2E9F
:101A0000FAD8002BF8D14FEAD60C06F0070E4FF0AB
:101A1000010801EBCC1C08FA0EFE8444002DE5D130
:101A20009CF810B001362BEA0E0AB4428CF810A0D4
:101A3000E5D201318945D1D207B0BDE8F08FA3EBE3
:101A40000108B8F1000FB8BFC8F100089942C0F012
:101A50004E817F2B4FF0FF3A94BF002601263F2A8C
:101A6000009694BF002701270297A6B99FB9D60810
:101A700002F0070C012703EBC6160644002D00F008
:101A8000948107FA0CF796F810C047EA0C073774F0
:101A9000002602960096994200F0978146469446A9
:101AA0008E46BEF17F0F16D8BCF13F0F13D84FEA18
:101AB000DC070CF0070B4FF001090EEBC7170744CA
:101AC000002D00F0398109FA0BF997F810B049EAB6
:101AD0000B0987F81090770018BFD644B84502DD8F
:101AE00046440CF1FF3C7345DBD16245D9D1002659
:101AF0000496A4EB0209009FB9F1000FB8BFC9F129
:101B000000093F2C94BF00260126A242C9F100081B
:101B10000396C0F02381002F40F05081002E40F04A
:101B20004D814FF0FF360096E60803EBC6160644DB
:101B3000002D00F01E814FF0010C04F007070CFA95
:101B400007F796F810C047EA0C073774002603968B
:101B5000A24200F03D81C44616461F4605927F2FE3
:101B600015D83F2E13D84FEAD60E06F0070B4FF0CC
:101B7000010A07EBCE1E8644002D00F0E6800AFA2B
:101B80000BFA9EF810B04AEA0B0A8EF810A0B8EBD8
:101B90004C0F4FEA4C0E02DAACEB090C013FBEF1E0
:101BA000000F01D0009A1644BB42D8D1B442D6D11E
:101BB000059AA1EB030EBEF1000FB8BFCEF1000EE7
:101BC0007F2994BF4FF0000A4FF0010A99428CBF61
:101BD0004FF001094FF0FF39BAF1000F13D1039E06
:101BE0008EB9E60801EBC6160644002D00F0D3803E
:101BF0004FF0010C04F007070CFA07F796F810C035
:101C000047EA0C073774049E26BB774626467F2B8F
:101C100014D83F2E12D84FEAD60C06F0070B4FF01F
:101C2000010803EBCC1C8444002D73D008FA0BF898
:101C30009CF810B048EA0B088CF810805FEA470C5B
:101C400018BF4B44E64501DD7744013E9942DED1A1
:101C5000B442DCD1A2EB040EBEF1000FB8BFCEF14E
:101C6000000EA2428CBF4FF001084FF0FF38CEF1BA
:101C7000000CBAF1000F0ED1029B63B9D30802F039
:101C80000707012601EBC3130344002D7CD0BE409F
:101C90001F7C3E431E74019B002B7FF4CDAE664635
:101CA0000B467F2B12D83F2C10D8E70804F0070A08
:101CB0004FF0010903EBC7170744A5B309FA0AF966
:101CC00097F810A049EA0A0987F81090BCEB460F74
:101CD0004FEA460702DAA6EB0E06013B07B1444481
:101CE0009942DED1A242DCD107B0BDE8F08F3F2A95
:101CF0004FF0010A94BF002601267F2B029694BF65
:101D0000002701270097002E7FF4C8AE002F3FF474
:101D1000AEAEC3E608FA0BFB9CF8108028EA0B086D
:101D20008CF810808AE709FA0AFA97F8109029EAE5
:101D30000A0987F81090C9E709FA0BFB97F8109089
:101D400029EA0B0987F81090C5E60AFA0BFB9EF802
:101D500010A02AEA0B0A8EF810A018E797BB8EBBDA
:101D600001260096E60803EBC6160644002D7FF414
:101D7000E2AE012704F0070C039507FA0CFC377C50
:101D800027EA0C073774E3E606FA07F71E7C26EA13
:101D900007061E747FE7012704F0070C07FA0CFC06
:101DA000377C27EA0C0737742DE707FA0CFC377CE1
:101DB000029527EA0C07009537746CE64FF0FF3662
:101DC0000096C5E601260096C5E60126049690E633
:101DD00001260196EDE600BF84B070B584B00446DC
:101DE0004FF47A7609AD85E80E009DF83830294623
:101DF0000025037102F048FBAE2303AA00968DF87C
:101E00000D302046217902238DF80C5002F0D4FBCE
:101E1000D52303AA0096204621798DF80D300223A0
:101E20008DF80C5002F0C8FB802303AA00962046D0
:101E300021798DF80D3002238DF80C5002F0BCFB97
:101E4000A82303AA0096204621798DF80D3002239D
:101E50008DF80C5002F0B0FB3F2303AA00962046F9
:101E600021798DF80D3002238DF80C5002F0A4FB7F
:101E7000DA2303AA0096204621798DF80D3002233B
:101E80008DF80C5002F098FB122303AA009620460E
:101E900021798DF80D3002238DF80C5002F08CFB67
:101EA000D32303AA0096204621798DF80D30022312
:101EB0008DF80C5002F080FB03AA009602232179D2
:101EC00020468DF80C508DF80D5002F075FB402324
:101ED00003AA0096204621798DF80D3002238DF853
:101EE0000C5002F069FBA62303AA00962046217934
:101EF0008DF80D3002238DF80C5002F05DFBA42309
:101F000003AA0096204621798DF80D3002238DF822
:101F10000C5002F051FB8D2303AA00962046217934
:101F20008DF80D3002238DF80C5002F045FB142380
:101F300003AA0096204621798DF80D3002238DF8F2
:101F40000C5002F039FBA12303AA00962046217908
:101F50008DF80D3002238DF80C5002F02DFBC823B4
:101F600003AA0096204621798DF80D3002238DF8C2
:101F70000C5002F021FB812303AA00962046217910
:101F80008DF80D3002238DF80C5002F015FB8F23D5
:101F900003AA0096204621798DF80D3002238DF892
:101FA0000C5002F009FBD92303AA009620462179A0
:101FB0008DF80D3002238DF80C5002F0FDFA252328
:101FC00003AA0096204621798DF80D3002238DF862
:101FD0000C5002F0F1FADB2303AA00962046217987
:101FE0008DF80D3002238DF80C5002F0E5FA342301
:101FF00003AA0096204621798DF80D3002238DF832
:102000000C5002F0D9FAAF21009603AA02238DF8F2
:102010000D10204621798DF80C5002F0CDFA04B055
:10202000BDE8704004B070472DE9F04300217948C5
:10203000794D0024DFF834924FF00108774F2DEDF1
:10204000028BCFB09FED768A00F010FD042171481D
:1020500029AE00F031FC03216E4800F011FC7149FB
:102060006C4800F009FC4FF07C536F4900229FED53
:102070006F0A28466961AA616B60EB6085ED048A8E
:1020800085ED020A11F0F0F940F20113F0EE407A0A
:102090004846B0EE480A2B85C5ED077A2C7010F043
:1020A000C9FF10223C232C948DF8B420604A8DF88F
:1020B000B8302CABCDE9294202222B9293E80700DD
:1020C0008DE807005B4896E80E00FFF785FE5A4B47
:1020D0002022214614A8049306940E94CDE90844C6
:1020E000CDE90A44CDE90C4411F01EFC534B9FEDA1
:1020F000540A04A80793534B059527931C942894DE
:10210000CDF83C80CDE92544FEF7A6FC4E4B2022BD
:10211000214639A829933394CDE92D44CDE92F44A4
:10212000CDE9314411F000FC484BB7EE000A3046CF
:102130002C93474BCDF8A8903593464BCDF8D080E3
:102140002B93454B41944A934B94CDE94C44FEF775
:1021500093FC3B6A072B0BD803EB080204A9082A5F
:1021600047F823103A6203D0023347F822603B62FB
:102170003A4D00219FED328A0024284600F00AF9EA
:10218000C5F8187831E0079BB0EE480A9847FDEE95
:10219000C87A33494FF45C7017EE903ADFED317A2C
:1021A000053381FB0321DA17C2EB611200FB123207
:1021B00007EE102AB8EEC78AB4EE678AF1EE10FA7D
:1021C00010D10CB3012C25480CBF0021022100F0D6
:1021D000E1F8254AA2FB043222F0010303EB52038B
:1021E000E31A5C1C1D4800F0D5FA0A21094800F0EA
:1021F0003FFB089B059A591002EB6300DB07C2D531
:102200005258079BD358BFE70121144800F0C2F889
:10221000DFE700BF4C0C0024C00C00240C04002499
:1022200000803B47D90A00083EC3AE370000C842D1
:1022300001080109F80C002434420108550B00087C
:102240000000FA43FD30010848420108E930010866
:10225000E0410108D8410108C530010830040024DC
:1022600095204F0900C05A44ABAAAAAA0011002425
:1022700038B51C4800244FF60B736FF0F4111A4A5E
:1022800044610462836544660467184DC0E90041F7
:10229000C0E90A34C0E90F34C0E90211C0E90C44B6
:1022A0001349C0E91144C0E9174411F0E3F8114B98
:1022B00011491C620C4A114811F0DCF80A4A104915
:1022C000104811F0D7F8104B074A28460F49AC6068
:1022D0002B6011F0CFF8294601220D48BDE83840A7
:1022E00000F018B84C0C002400000024F00C00246E
:1022F0004D0A00080C040024510A0008C00C0024F8
:10230000550A000800110024F4410108B90A000828
:102310003004002470B50023044680200E46154684
:102320001946C4F808084FF4806204F108002371CC
:10233000C4F80C38C4F8183811F0F6FA20462660B4
:1023400084F8105870BD00BF10B50446B2EE047A90
:1023500084B00E49D4F8143803A8D3ED007AFDEE0A
:10236000E77AF8EEE77A67EE877AFDEEE77A17EE1E
:10237000902A11F097FB20680122054B046803A9FD
:102380000092A46A0CCBA04704B010BD54420108CF
:102390005400002438B504460068094A0D46036815
:1023A0001B69934207D14FF480620021103011F075
:1023B000BBFA257138BD00219847257138BD00BF93
:1023C000C50A0008D0F80C28531C00EB82025942C1
:1023D00082ED020ADBB2CAB258BF5342C0F80C38D1
:1023E000704700BF90F8103813B91F4B186870473A
:1023F000D0F80C38D0F80828013300B503EB020EF2
:1024000073452DDA5942DAB2C9B258BF4A4200EBDD
:102410008202D2ED027A01E0734521D09C4601335D
:10242000B0EE677A5942DAB2B5EEC07AC9B258BF97
:102430004A42F1EE10FA00EB8202D2ED027AEBD5BD
:10244000F5EEC07AF1EE10FAE6DBDCF100035FFA9C
:102450008CF0054ADBB258BF584210605DF804FBAF
:10246000014B18685DF804FB341100242DE9F04F8E
:10247000046887B0824623682046DB6898470028B6
:1024800040F0C88023682046DB689847013883B253
:1024900022682046A38093689847202800F2B880DD
:1024A000236820469B689847013883B2DAF8000019
:1024B000E38003685A4A1B69934240F0AD804FF4B1
:1024C00080620021103011F02FFA5046FFF78AFF8A
:1024D000DAF808380590002B40F38580C3B2064631
:1024E00001270493734206F10106049A07F1FF31B4
:1024F000DBB2DAF80000DFED4B7A58BF5A42744283
:10250000F3B2B0EE677AE4B2DFED476A04930AEB08
:102510008202036892ED026A9D69049B58BF634280
:10252000A6EE667A414A0AEB8303954293ED026A6E
:10253000E6EE667ABDEEC77A17EE104AFDEEE77A50
:1025400017EE903A5BD1A3EB0409B9F1000FB8BFC5
:10255000C9F100099C42C9F101054BD34FF0FF328C
:102560007F2F039211D83F2B0FD8DA084FF0010EBE
:1025700003F0070C07EBC2120EFA0CFC024492F8AF
:1025800010E04CEA0E0C82F810C0C9F100084FF0C0
:10259000010EE20804F0070C7F2901EBC21205FAD4
:1025A0000EFB0EFA0CFC08D83F2C024405D892F81A
:1025B00010E04CEA0E0C82F810C0B8EB450F15DAAB
:1025C000BBF1000FA5EB090501F101010EDDB942D8
:1025D000DDD1A342DBD1DAF808380137059A13447C
:1025E000B3423FF77FAF07B0BDE8F08F039A0135E4
:1025F0001444ECE701227F2F0392B4D9C5E70123ED
:1026000017EE102ACDED007A01933B46A847E2E78A
:1026100020234BE700233BE70021984755E700BF05
:10262000C50A0008000000420000204249140008CA
:1026300030B5046883B0054623682046DB689847B8
:10264000E8B923682046DB689847013883B22268DE
:102650002046A3809368984798B9236820469B68D2
:102660009847013883B22868074A0168E38001244B
:102670000CCA00948C6A0549A04703B030BD002302
:10268000E5E70023EFE700BF5400002458420108AB
:102690002DE9F043046883B0064623682046DB68D2
:1026A000984700286DD123682046DB689847013899
:1026B00083B222682046A3809368984700285ED1A1
:1026C000236820469B689847013880B2D6F81838AE
:1026D000E080002B47D01B6A002B4DD00025DFF88F
:1026E000B0802F4615E052F8270003689B68984792
:1026F00001464FF0010C48460A35CDF800C067444A
:10270000ADB298E80C00A047D6F818381B6ABB4257
:1027100032D9346823682046DB6898470246002394
:10272000204622B92368DB689847013883B22268C3
:102730002046A3809368984702462B462046AA422B
:1027400004D823689B689847013883B2D6F81828C4
:10275000D6F80090E380136AD9F80010BB428C6A67
:10276000C1D80021C5E730680122074B046807493A
:102770000092A46A0CCBA04703B0BDE8F083002010
:10278000A4E7002395E700BF54000024604201083D
:102790005C00002403792DE9F047044684B0032B44
:1027A00005D8DFE803F055585B02FFF7CDFD276839
:1027B0002E4A3B681B6B934253D107F1080807F17F
:1027C0008F0607F28F4A4FF0B00900244FF47A7554
:1027D000022303AA8DF80C4040468DF80D90397BFA
:1027E000009501F0E9FE8DF80C408DF80D400223B4
:1027F000397B03AA4046009501F0DEFE10238DF8D8
:102800000C4003AA8DF80D304046397B0223009519
:10281000A6F1800401F0D0FE40214FF47A75022326
:1028200003AA8DF80C10404614F8011F8DF80D1006
:10283000397B009501F0C0FEA642EDD1803609F14A
:10284000010956455FFA89F9BFD104B0BDE8F087A8
:10285000FFF7EEFEABE7FFF709FEA8E7FFF718FF6B
:10286000A5E7384604B0BDE8F0471847090C000852
:10287000084602F0FFBF00BF143001F075BA00BF78
:1028800038B500F1140504462DED028B284601F001
:1028900017FA284601F010FA2846B0EE408A01F0F7
:1028A000F9F9D0ED007AF8EE677A88EE277ABDEC78
:1028B000028B84ED1B7A38BD38B500F1140504464F
:1028C0002DED028B284601F0E9F9284601F0F4F9D4
:1028D0002846B0EE408A01F0DDF9D0ED007AF8EE3E
:1028E000677A88EE277ABDEC028B84ED1B7A38BDBF
:1028F00010B540F203338EB000244FF60B7240F255
:102900000341ADF8083009A80123ADF81020ADF857
:1029100024202246ADF80C100094029907940C94E0
:10292000CDE90544CDE90A4401F038FB04A80123B0
:1029300022460399009401F031FB09A801F014FC30
:1029400010B901200EB010BD04A801F00DFCA0428A
:102950000CBF022020460EB010BD00BF2DE9F04193
:1029600003239AB04FF0010800254FF60B74074679
:10297000CDE91438394BADF84C40CDE91053A3F1F3
:102980009F63A3F57D43CDE916581293FFF7B0FF7F
:102990004045064623D0022842D040F60132304B53
:1029A00007F158000BACADF82C200B991895CDF819
:1029B0006480CDF84A3000F0DBF810A907F1700010
:1029C00002F02AFD274B0FCB84E80F003A6F214617
:1029D00007F1140001F026F91AB0BDE8F0811023C8
:1029E0001F4A06A906908DF828300BAC1E4BCDF877
:1029F0004A2007930295CDE91805CDE9080502A8FC
:102A000001F042FD0823029A03A92046ADF80C60AC
:102A10008DF80E50049605930B9500F0E9F8CCE77D
:102A200040F60133ADF82C4000200BACADF8183067
:102A300001210B4B42460095CDF84A302B460E95AE
:102A4000CDE9180106992046CDE90C5501F0A6FA0A
:102A50002946204601F094FBAFE700BF04020404BE
:102A6000040604038C4101080704010B2DE9F0471B
:102A700004462DED028B82B0002949D0012140F29D
:102A8000011200230091ADF804208DF80630354A7C
:102A90000127354B04F10409344904F13C08626014
:102AA00040F20272A36040F60663E16004F1280A76
:102AB0002285A3872782E762276403F087F805460B
:102AC00002F0DAFE6946064650BB4DB304F15000F1
:102AD0008DF8067002F0FCFF072D3ED104F11405BD
:102AE0002046FFF73BFF284601F0E6F82846B0EE07
:102AF000408A01F0CFF8D0ED007AF8EE677A88EEE0
:102B0000277A84ED1B7A02B0BDEC028BBDE8F0871A
:102B100040F2011300918DF80610ADF80430B6E7CD
:102B200004F1500002F0D4FF072D13D0494620468F
:102B300002F07EF80EB9002DD0D15146504601F07A
:102B400047F94046414601F043F904F1120000F014
:102B500079F9C3E7002EF0D1C0E74946204602F0DC
:102B600067F8BBE70508050905070506050A060617
:102B700030B585B0002504460122ADF80C102B4677
:102B80000399009501F00AFA0121204601F0F8FAB4
:102B9000012002F06FFE2946204601F0F1FA0120E3
:102BA00002F068FE0121204605B0BDE8304001F08A
:102BB000E7BA00BF10B5C2F3002384B00C46017C15
:102BC0008DF80D2043EA4402FA2402238DF80C20EC
:102BD00003AA009401F0F0FC18B10124204604B0CF
:102BE00010BD04460A2002F045FE204604B010BD88
:102BF000034670B543F8042B044684B007C983E844
:102C00000700A37983B91A210B461E22FA252374E3
:102C10002046ADF80C20022303AA009501F0CCFC5D
:102C200028B1012004B070BD1B210B46EDE70A203E
:102C300002F020FE4FF4B85200950223ADF80C20AC
:102C4000204603AA217C01F0B7FC0028E9D10A2024
:102C500002F010FE41F2027200950223ADF80C2042
:102C6000204603AA217C01F0A7FC0028D9D10A2024
:102C700002F000FE042200950223ADF80C2020464D
:102C800003AA217C01F098FC0028CAD10A2002F096
:102C9000F1FD062200950223ADF80C20204603AA80
:102CA000217C01F089FC0028BBD10A2002F0E2FD62
:102CB00041F2082200950223ADF80C20204603AA19
:102CC000217C01F079FC0028ABD10A20064602F0F5
:102CD000D1FD0095022303AA217C2046ADF80C60AB
:102CE00001F06AFC00289CD1304602F0C3FD00953B
:102CF00022790C232046002A8DF80C3003AA4FF0CD
:102D0000020314BF622142218DF80D10217C01F0D5
:102D100053FC002885D1304602F0ACFD2279D4E97D
:102D200002310B43DBB20AB943F0400362790AB1C6
:102D300043F020030E22FA258DF80D302046009531
:102D400002238DF80C2003AA217C01F035FC002819
:102D50007FF467AF0A2002F08DFD10220095022358
:102D6000ADF80C20204603AA217C01F025FC0028A8
:102D70007FF457AF0A2002F07DFD12210095022357
:102D8000ADF80C1003AA217C204601F015FC0028A8
:102D90007FF447AF0A2002F06DFD01220921204691
:102DA000FFF708FF003818BF01203BE7F0B51023FC
:102DB00087B0234C012200250126002702A92046C6
:102DC0000195CDE902234FF48052CDE904670AF062
:102DD00021F9642003F0E8F802A94FF4805220465C
:102DE000CDE9046702261027CDE902670AF012F93F
:102DF0000322102302A92046CDE902230023042246
:102E0000CDE904234FF480520AF004F940F2322352
:102E1000042202A9019310232046CDE90223019A3E
:102E2000012305924FF4805204930AF0F3F840F620
:102E3000060120460AF00EF9284607B0F0BD00BF93
:102E4000401100241C4B00221C494FF0400C30B5AF
:102E5000054689B00220596007219A601A62012450
:102E6000DA620A224FF4006EDC6006922022CDE97D
:102E7000000104200821CDE9020103201021CDE941
:102E8000040108206946C3E904024FF4C072181D0A
:102E9000C3E906C24FF48052C3E909E20AF090F890
:102EA00038B92846FFF782FF003818BF012009B063
:102EB00030BD204609B030BD3C11002440410052D5
:102EC000614A0021D0B513688EB00A91002B40F002
:102ED000B9805E4B01214FF683700C2411600221F2
:102EE000D3F8D4200026032742F48052C3F8D4201C
:102EF000D3F8D42002F480520092009AD3F8E02054
:102F000042F01002C3F8E020D3F8E02002F01002F3
:102F10000192019AD3F8E02042F04002C3F8E02089
:102F2000D3F8E02002F040020292029AD3F8E020A7
:102F300042F00802C3F8E020D3F8E02002F00802D3
:102F40000392039AD3F8E02042F48072C3F8E020A1
:102F5000D3F8E02002F480720492049AD3F8E020BF
:102F600042F08002C3F8E020D3F8E02002F08002B3
:102F70000592059AD3F8E02042F02002C3F8E02041
:102F8000D3F8E02002F020020692069AD3F8E0205F
:102F900042F00402C3F8E020D3F8E0300C9403F0D0
:102FA000040307930323079A0B93CDE9080108A9AB
:102FB000274804F079FB48F23712022308A9254874
:102FC0000C94CDE90823CDE90A6704F06DFB4CF2BF
:102FD0000372022308A920480C94CDE90823CDE907
:102FE0000A6704F061FB40F2FF62022308A91B4854
:102FF0000C94CDE90823CDE90A6704F055FB4FF6A0
:103000000C72022308A916480C94CDE90823CDE9D7
:103010000A6704F049FB4FF63F02022308A9114852
:103020000C94CDE90823CDE90A6704F03DFB20228A
:10303000022308A90A480C94CDE90A67CDE90823C0
:1030400004F032FB0EB0D0BD381100240044025809
:103050000010025800180258000C025800200258B4
:10306000001C0258001402582DE9F04FDFF81084BC
:1030700006460D46144608F118002DED028B89B066
:1030800000AF02F0C1FAD8F8183073B3D8F81C308A
:10309000D8F80490002B43690BBF4FF0080A4FF09B
:1030A000100A4FF0020B4FF0040BB9F1000F2AD0B9
:1030B000A200EA46012B02F1070222F00702ADEB63
:1030C000020D6846ADEB020D694600F03F81022B10
:1030D00000F0D680002B6FD02246C847D546243753
:1030E000BD46BDEC028BBDE8F08FD8F81C30002B3C
:1030F000F5D0D8F804904FF0080A4FF0020B43695E
:10310000B9F1000FD4D1FB61D8F80030BB61002BBE
:10311000E5D0D54802F0EAFA6B46BBF1020F7861C0
:1031200008EE103AFB6900F083816A465146A2EB33
:10313000C40295466200EA46B2FBFBF2AAEBC40069
:1031400085460AEB8200EE46F861ADEB010DF869A9
:103150000EEB820CC7F810C0EC46ADEB010D00EB96
:103160008201CCF80400CCF8081001EB8201386928
:10317000E946CCF80C1000EB8201CCF800A001EB82
:103180008202C9E900E0C9E90212012B00F0648360
:10319000022B00F06C82002B00F08081620849460F
:1031A0006046BB69984718EE103A24379D46BD46E5
:1031B000BDEC028BBDE8F08F002C8DD01A46D8ED07
:1031C0000C6A9FEDB27A8446331D36F922E00CF189
:1031D000080C07EE90EA33F922E00232F8EEE77AC3
:1031E000944267EE877A67EEA67A4CED027A07EE94
:1031F00090EAF8EEE77A67EE877A67EEA67A4CED0A
:10320000017AE2D8F9612246C847984ED8ED0D6A96
:103210000020F9692B1D9FED9E7A9FED9E6ADFEDE0
:103220009E5A22E0F4EEC67AF1EE10FAC0F2C8849B
:1032300047F6FE72D1ED017A45F8202066EEA77AB6
:10324000F4EEC77AF1EE10FA40F2F080F4EEC67AAE
:10325000F1EE10FAC0F2D58447F6FE7243F8202052
:103260000230083184427FF639AFD1ED007A66EE44
:10327000A77AF4EEC77AF1EE10FAD3D83246D9E73E
:10328000002C3FF429AFD8ED0C6A84469FED787A84
:103290000022331D8E4656F822100CF1080C07EE62
:1032A000901A53F822100232F8EEE77A944267EE51
:1032B000877A67EEA67A4CED027A07EE901AF8EE5E
:1032C000E77A67EE877A67EEA67A4CED017AE2D864
:1032D00071462246C7F81CE0C847664ED8ED0D6A15
:1032E0000020F9692B1D9FED6A7A9FED6A6ADFF86D
:1032F00094C120E0F4EEC67AF1EE10FAC0F27984BF
:103300003246D1ED017A45F8202066EEA77AF4EE38
:10331000C77AF1EE10FA40F28780F4EEC67AF1EE49
:1033200010FAC0F25E84324643F8202002300831A1
:1033300084427FF6D3AED1ED007A66EEA77AF4EE42
:10334000C77AF1EE10FAD5D86246DAE7002C3FF4DE
:10335000C3AED8ED0C6A86469FED477A4FF0000C5D
:10336000331D56F82C200EF1080E82F40002A2F54F
:10337000000207EE902A53F82C200CF1020CF8EE14
:10338000E77A82F400026445A2F5000267EE877ACC
:1033900067EEA67A4EED027A07EE902AF8EEE77A0B
:1033A00067EE877A67EEA67A4EED017AD9D8F96191
:1033B0002246C847314ED8ED0D6A0020F9692B1D11
:1033C0009FED337A9FED336ADFF8BCC01FE0F4EE67
:1033D000C67AF1EE10FAC0F2FC833246D1ED017AE2
:1033E00045F8202066EEA77AF4EEC77AF1EE10FADF
:1033F00018D9F4EEC67AF1EE10FAC0F2DA8332464A
:1034000043F820200230083184427FF667AED1EDC8
:10341000007A66EEA77AF4EEC77AF1EE10FAD6D803
:103420006246DBE76246EBE762467DE7324615E738
:10343000A100D6466208073121F00701ADEB010D6E
:10344000EA46ADEB010D6946ADEB0E0D0AEB8200CD
:10345000EC46ADEB0E0D01EB8202F861E946CCE9DA
:1034600000A0C9E9001290E6901100240280FFFF3D
:10347000000000300082FF7F0000003482FF7F00E8
:1034800074110024007E00807E0080FF0000003860
:1034900004FF7FBF04FF7F3F00FEFF46002C00F0CB
:1034A000C982BBF1020FD8F8242000F0FA827969B2
:1034B000C7F8049002EB810E5FED0C5A8A00DCF82D
:1034C00008100EF104007A611A46DCF80C303B61FA
:1034D000331DD7F810903D61FD69C7E902CB8C46DA
:1034E000834636F92210D8ED0C7A06EE101A33F91D
:1034F000221006EE901A3EF92210B8EEC66A07EEC8
:10350000101AF8EEE66A3BF92210B8EEC77A26EEFA
:10351000256A66EEA56A27EE257A26EE276A66EE0C
:10352000A76A27EE277A07EE901A51080232F8EEC2
:10353000E77A0AEB8100944280ED006A05EB810096
:1035400067EEA57AC0ED006A0CEB810009EB810102
:1035500080ED007A98ED0C7A67EE877AC1ED007AFB
:10356000BFD8D7F804903D69D7E902CB604662081E
:10357000BB6949469847D8F82C307A69D8ED0D6A6E
:103580001A441FED3D7A1FED3D6A2B1D904602F156
:10359000040A5FED3F5A0022A84ED9E900EC51E041
:1035A000F4EEC67AF1EE10FAC0F2C78247F6FE706A
:1035B00045F822000CEB0100D0ED007A66EEA77A08
:1035C000F4EEC77AF1EE10FA4BD9F4EEC67AF1EECA
:1035D00010FAC0F2BA8247F6FE70BBF1020F43F850
:1035E00022002BD0D9F808000844D0ED007A66EE0E
:1035F000A77AF4EEC77AF1EE10FA36D9F4EEC67A6D
:10360000F1EE10FAC0F2CD8247F6FE7048F82200C3
:10361000D9F80C000144D1ED007A66EEA77AF4EEF9
:10362000C77AF1EE10FA1ED9F4EEC67AF1EE10FA6E
:10363000C0F2AF8247F6FE714AF82210023294427D
:103640007FF6B1AD51080EEB81008900D0ED007A14
:1036500066EEA77AF4EEC77AF1EE10FAA0D83046FB
:10366000A6E73046B9E73146E6E73046CEE7002C1C
:1036700000F0E081BBF1020FD8F8243000F0E181C6
:103680007A69DCF8081003EB820EC7F80490930007
:10369000DFED6B5A0EF1040000227B61DCF80C3088
:1036A0003B61331DD7F810903D61FD69C7E902CB3E
:1036B0008C46834656F82210D8ED0C7A07EE101A85
:1036C00053F82210B8EEC76A07EE101A5EF82210FF
:1036D000F8EEC76A07EE101A26EE256A5BF822108C
:1036E000B8EEC77A66EEA56A26EE276A27EE257A37
:1036F00066EEA76A27EE277A07EE901A5108023283
:10370000F8EEE77A0AEB8100944280ED006A05EB5F
:10371000810067EEA57AC0ED006A0CEB810009EB31
:10372000810180ED007A98ED0C7A67EE877AC1ED21
:10373000007ABFD8D7F804903D69D7E902CB60463C
:103740006208BB6949469847D8F82C307A69D8EDA9
:103750000D6A1A449FED3E7A9FED3E6A131D924614
:10376000DFF8E4C00022FB612B1D364ED9E9008E44
:103770004EE0F4EEC67AF1EE10FAC0F2FC8130466B
:1037800045F822000EEB0100D0ED007A66EEA77A34
:10379000F4EEC77AF1EE10FA49D9F4EEC67AF1EEFA
:1037A00010FAC0F2EF813046BBF1020F43F822005D
:1037B0002AD0D9F808000844D0ED007A66EEA77A3E
:1037C000F4EEC77AF1EE10FA35D9F4EEC67AF1EEDE
:1037D00010FAC0F2C98130464AF82200D9F80C002C
:1037E0000144D1ED007A66EEA77AF4EEC77AF1EEE5
:1037F00010FA1ED9F4EEC67AF1EE10FAC0F2AD81DD
:103800003146F86940F82210023294427FF6CBAC80
:10381000510808EB81008900D0ED007A66EEA77AA6
:10382000F4EEC77AF1EE10FAA3D86046A8E7604636
:10383000BAE76146E5E76046CEE700BF0280FFFFDA
:10384000000000300082FF7F007E00800000003416
:1038500004FF7FBF04FF7F3F002C00F0EB807A69FC
:103860000021D8F82430C7F8109003EB820ED7F867
:103870001C909300FD610EF104021FED0C6A7B6148
:10388000331D154656F821204808D8ED0C6ABBF1C7
:10389000020F82F40002A2F5000207EE902A53F80C
:1038A000212082F40002B8EEE77AA2F5000227EEAA
:1038B000067A07EE902A0AEB8002F8EEE77A27EE06
:1038C000267A67EE867A82ED007A09EB80024FEA6B
:1038D000800067EEA67AC2ED007A27D05EF821203C
:1038E00082F40002A2F5000207EE902A55F821208A
:1038F00082F40002B8EEE77AA2F5000227EE067A1B
:1039000007EE902ADCF80820F8EEE77A024427EE6A
:10391000267A67EE867A82ED007A98ED0C7ADCF8EA
:103920000C2067EE877A0244C2ED007A02318C42A5
:10393000A8D8D7F8109060466208BB694946FD696F
:103940009847D8F82C307A69D8ED0D6A1A441FEDE3
:10395000407A1FED406A131D9246DFF8C4C2002270
:10396000FB612B1DAB4ED9E9008E4EE0F4EEC67A1A
:10397000F1EE10FAC0F2C580304645F822000EEB99
:103980000100D0ED007A66EEA77AF4EEC77AF1EE88
:1039900010FA49D9F4EEC67AF1EE10FAC0F2BF80FF
:1039A0003046BBF1020F43F822002AD0D9F80800B4
:1039B0000844D0ED007A66EEA77AF4EEC77AF1EE0D
:1039C00010FA35D9F4EEC67AF1EE10FAC0F2AE80F4
:1039D00030464AF82200D9F80C000144D1ED007AB3
:1039E00066EEA77AF4EEC77AF1EE10FA1ED9F4EE7D
:1039F000C67AF1EE10FAC0F28B803146F86940F8D1
:103A00002210023294427FF6CEAB510808EB8100BF
:103A10008900D0ED007A66EEA77AF4EEC77AF1EE6F
:103A200010FAA3D86046A8E76046BAE76146E5E722
:103A30006046CEE7224649466046BB699847FFF795
:103A4000B2BBC7F810B0002298ED0C6A331DDFED51
:103A5000726AD7F81CB0786956F8221007EE901AEF
:103A600053F82210B8EEE77A07EE901A51080232A6
:103A7000F8EEE77A27EE267A0AEB810E94420BEBFA
:103A8000810167EEA67A27EE067A67EE867A8EEDDA
:103A9000007AC1ED007ADFD88300D7F810B07B61DF
:103AA0004DE61A46C7F810B098ED0C6A331DDFEDED
:103AB0005B6AD7F81CB0786936F9221007EE101A45
:103AC00033F9221007EE901AB8EEC77A5108023285
:103AD000F8EEE77A27EE267A0AEB810E94420BEB9A
:103AE000810167EEA67A27EE067A67EE867A8EED7A
:103AF000007AC1ED007ADFD88300D7F810B07B617F
:103B000034E5F0EE675AFEEEE45A15EE900A34E71B
:103B1000F0EE675AFEEEE45A15EE901A6EE7F0EEFC
:103B2000675AFEEEE45A15EE900A3AE7F0EE675A4D
:103B3000FEEEE45A15EE900A4BE767EEA57AFDEE2D
:103B4000E77A17EE900A00B232E567EEA57AFDEE4D
:103B5000E77A17EE900A00B23FE5F0EE675AFEEE04
:103B6000E05A15EE901A4CE6F0EE675AFEEEE05A77
:103B700015EE900A30E6F0EE675AFEEEE05A15EECA
:103B8000900AFDE5F0EE675AFEEEE05A15EE900A57
:103B90000AE667EEA57AFDEEE77A17EE901A09B20B
:103BA0004AE567EEA57AFDEEE77A17EE900A00B2D5
:103BB0002CE5F0EE675AFEEEE45A15EE902A1FE46B
:103BC00067EEA57AFDEEE77A17EE902A12B2FFF7BC
:103BD00031BBF0EE675AFEEEE45A15EE902AFFF77D
:103BE000FDBBF0EE675AFEEEE05A15EE902AFFF7A5
:103BF0009BBBF0EE675AFEEEE05A15EE902AFFF7F7
:103C000080BB67EEA57AFDEEE77A17EE902A12B236
:103C1000FFF724BB82FF7F00000000300000003867
:103C20007E0080FF30B5184C154685B0046004F165
:103C3000080EEC460FC98EE80F00D4ED047AF5EEBD
:103C4000C07A8CE80F00F1EE10FA1ADDB7EE006AC8
:103C500094ED057A27EE277AC6EE276A84ED0D7A71
:103C6000C4ED0C6A6DB1204640F8185F01F0CCFC41
:103C7000064903690020064A2162A262E36005B09A
:103C800030BD012005B030BD74110024002000308B
:103C90000000003000680830704700BFB1F5807F39
:103CA00003680A4628BF4FF48072B1F5807F9A609E
:103CB00094BF0020012070470068183001F004BD57
:103CC00070B504688AB0A369E1600BB304F118050C
:103CD0006FF0F4134FF60B722846ADF80C20CDE9C7
:103CE000013301F091FC8446EE46E668BCE80F0023
:103CF000AEE80F00BCE80F00AEE80F009CE8030040
:103D00008EE8030069462846049601F085FB38BB1F
:103D1000E06918B304F11C056FF0F4134FF60B7251
:103D20002846ADF80C20CDE9013301F06DFC844646
:103D3000EE46E468BCE80F00AEE80F00BCE80F00F8
:103D4000AEE80F009CE803008EE8030069462846B1
:103D5000049401F061FB003818BF01200AB070BD67
:103D600001200AB070BD00BF30B5046883B00D46B5
:103D7000E3694BB1A3680020E26A616A9B0000908E
:103D800004F11C0001F042FCA3680748A26A9B00F2
:103D9000216A009004F1180001F038FC0020C4E909
:103DA000005003B030BD00BF6930000810B4074BAD
:103DB0004FF07E5130240022032019619C60D860AE
:103DC0005DF8044B5961C3E9062270477411002461
:103DD00084460FC98CE80F009CF800300B2B30D0C4
:103DE0009CF801200F2A2CD8022900B591B041D0AF
:103DF000032902D0012900D000210C91DCF8081021
:103E0000012902D0022918BF00210D91DCF80C1005
:103E1000022904D0032902D0012918BF00210A2B4E
:103E20000E910FD85B4800EB8320CCF810000A2BD2
:103E300017D8DFE803F0A0928476685A4C3E30220F
:103E4000090070470020F0E7534BD3F8E01041F42D
:103E50008061C3F8E010D3F8E03003F480630A9384
:103E60000A9B01230BA993400B9303F01DFC11B097
:103E70005DF804FB11210C91C0E7474BD3F8E0102B
:103E800041F40071C3F8E010D3F8E03003F400739C
:103E90000993099BE5E7404BD3F8E01041F48071AA
:103EA000C3F8E010D3F8E03003F480730893089B64
:103EB000D7E7394BD3F8E01041F08001C3F8E010A8
:103EC000D3F8E03003F080030793079BC9E7324B38
:103ED000D3F8E01041F04001C3F8E010D3F8E0302F
:103EE00003F040030693069BBBE72B4BD3F8E0108F
:103EF00041F02001C3F8E010D3F8E03003F02003D4
:103F00000593059BADE7244BD3F8E01041F0100179
:103F1000C3F8E010D3F8E03003F010030493049BDF
:103F20009FE71D4BD3F8E01041F00801C3F8E01003
:103F3000D3F8E03003F008030393039B91E7164B9B
:103F4000D3F8E01041F00401C3F8E010D3F8E030FA
:103F500003F004030293029B83E70F4BD3F8E010B6
:103F600041F00201C3F8E010D3F8E03003F002039F
:103F70000193019B75E7084BD3F8E01041F0010174
:103F8000C3F8E010D3F8E03003F001030093009B86
:103F900067E700BF000002580044025810B592B015
:103FA000ADF804100180C9B2149C0B29C460C0E9AB
:103FB00001233FD090F801C0BCF10F0F3AD8022A7C
:103FC0003FD0032A02D0012A00D000220E92012BFA
:103FD00002D0022B18BF0023022C0F932CD0032CED
:103FE0002AD0012C28D000230A29109327D85C4A14
:103FF00002EB812202610A2914D8DFE801F0A395BF
:1040000087796B5D4F4133250600564BD3F8E0109E
:1040100041F48061C3F8E010D3F8E03003F480632A
:104020000C930C9B01230DA9104603FA0CF30D937E
:1040300003F03AFB12B010BD0A291094D7D9002220
:10404000D8E711220E92C2E7464BD3F8E01041F4B4
:104050000071C3F8E010D3F8E03003F400730B9361
:104060000B9BDFE73F4BD3F8E01041F48071C3F8BE
:10407000E010D3F8E03003F480730A930A9BD1E791
:10408000384BD3F8E01041F08001C3F8E010D3F8CA
:10409000E03003F080030993099BC3E7314BD3F869
:1040A000E01041F04001C3F8E010D3F8E03003F035
:1040B00040030893089BB5E72A4BD3F8E01041F082
:1040C0002001C3F8E010D3F8E03003F02003079399
:1040D000079BA7E7234BD3F8E01041F01001C3F88A
:1040E000E010D3F8E03003F010030693069B99E745
:1040F0001C4BD3F8E01041F00801C3F8E010D3F8EE
:10410000E03003F008030593059B8BE7154BD3F8CC
:10411000E01041F00401C3F8E010D3F8E03003F000
:1041200004030493049B7DE70E4BD3F8E01041F0A9
:104130000201C3F8E010D3F8E03003F00203039368
:10414000039B6FE7074BD3F8E01041F00101C3F880
:10415000E010D3F8E03003F001030293029B61E723
:10416000000002580044025808B501214378006954
:10417000994089B203F09AFC003818BF012008BDAD
:1041800001230A464178006903FA01F189B203F07C
:1041900093BC00BF10B5002386B0122204460493DE
:1041A000CDE902230368022B1FDC002B01DB042373
:1041B000059323790A2B1FD8114800EB83206279DD
:1041C000012301A99340019303F06EFAA3790A2B0E
:1041D00014D80B4800EB8320E279012301A9934016
:1041E000019303F061FA06B010BD032BE1D1062361
:1041F000059323790A2BDFD90020E0E70020EBE7C5
:1042000000000258634A0368934210B58CB028D06E
:10421000614A934258D0614A934200F09480604AC8
:10422000934201D00CB010BD5E4C5F48D4F8E03032
:1042300043F00203C4F8E030D4F8E03003F00203A6
:104240000A930A9BFFF7A6FFD4F8F43043F08003EB
:10425000C4F8F430D4F8F43003F080030B930B9BD4
:10426000E0E7504C5148D4F8E03043F00203C4F882
:10427000E030D4F8E03003F002030193019BFFF734
:1042800089FFD4F8E83000221F2043F400131146C0
:10429000C4F8E830D4F8E83003F400130293029B2A
:1042A000D4F8D83043F00103C4F8D830D4F8D8306B
:1042B00003F001030393039B01F0A0FE1F200CB049
:1042C000BDE8104001F0D8BE364C3948D4F8E03093
:1042D00043F08003C4F8E030D4F8E03003F080030A
:1042E0000493049BD4F8E03043F00203C4F8E030B8
:1042F000D4F8E03003F002030593059BFFF74AFF73
:10430000D4F8E8300022212043F480031146C4F899
:10431000E830D4F8E83003F480030693069BD4F821
:10432000D83043F00103C4F8D830D4F8D83003F0C3
:1043300001030793079B01F061FE21200CB0BDE84B
:10434000104001F099BE1B48FFF724FF154B0022D7
:104350004820D3F8E840114644F40004C3F8E8408C
:10436000D3F8E84004F400040894089CD3F8D8403B
:1043700044F00104C3F8D840D3F8D83003F0010367
:104380000993099B01F03AFE48200CB0BDE81040AB
:1043900001F072BE0054004000580040005C004034
:1043A000001C00580044025850140024B01100248E
:1043B00090120024701300242DE9F0431A4B87B0AB
:1043C00000254FF010099E46EC46184BFF22E046B0
:1043D00067461A700EF118060EF13004CDE900554B
:1043E000CDE90255ADF80090BCE80F00CDE90455C9
:1043F000AEE80F009CE803000095ADF800908EE851
:104400000300B8E80F000FC69CE803000095ADF864
:10441000009086E803000FCF0FC49CE8030084E8F7
:10442000030007B0BDE8F08304000024AC110024B1
:1044300010B5EFF3108472B6084B1A78120602D545
:1044400004B962B610BD1878054B40B2C0EBC0008D
:1044500003EB4010143002F0D5FDF1E7AC1100245D
:10446000B0110024014804F061BC00BF3C120024DC
:10447000014804F05BBC00BF1C130024014804F099
:1044800055BC00BFFC1300242DE9F0430D6885B036
:10449000404EC5EBC503032D4FEA431706EB43130C
:1044A000036041DCCA680C46012A3DD84FEAC508C2
:1044B0004CD020689C466168A8EB0509A2680DF104
:1044C000100EE36806EB4919ACE80F00324B227C72
:1044D0008CF80020D9F808C00FCB0EE90F000EEBC6
:1044E0008503BCF1010F53F8103CC9F88C3032D071
:1044F000BCF1020F43D0BCF1000F36D0227C8C37C8
:10450000A8EB050500233744520006EB45160121B0
:104510003846C6F8AC30C6E92521C6E92733C6E9D6
:10452000293304F0C5F818B1012005B0BDE8F083C7
:104530000146384604F006FC0028F5D1014638460D
:1045400004F02AFC003818BF0120EEE70A7C103A7C
:10455000672AAED9E8E701F037FB104B98420CBF51
:104560000F4B104BC9F89030C8E701F02DFB0B4BF7
:1045700098420CBF0C4B0D4BC9F89030BEE701F0D0
:1045800023FB064B98420CBF094B0A4BC9F89030ED
:10459000B4E700BFB01100249C410108000E2707BA
:1045A0002D0FB0303211D0205F4390608A62E0302E
:1045B000200BA0101A0980102DE9F041D0F80080DE
:1045C00082B00D4617461E4608F18C04204604F0C2
:1045D000B5FB2028FAD1D8F80C3073B96D0020460D
:1045E000089C33463A46A9B2009404F0B7F8003864
:1045F00018BF012002B0BDE8F081089B3246394661
:10460000204604F069FAF2E7094B6FF0F41110222A
:104610005960C3F8E4101A7483F8F020C3F8C41189
:1046200083F8D021C3F8A41283F8B022704700BFEA
:10463000B011002430B5002395B04FF480710622EC
:1046400004460B9306921393CDE90C13CDE90E3378
:10465000CDE9113301F0BAFA07282BD004F1100587
:1046600041F2883206A9284605F0D4FB28B101237F
:10467000184684F85C3015B030BD0222022306A92A
:104680002846CDE9002310220123CDE90223002290
:104690004FF48003CDE9042305224FF08073069286
:1046A0006A460F9341F2883305F020FD0028DED1E1
:1046B00015B030BD0323012084F85C3015B030BD47
:1046C00070B50023A4B04FF080724FF4807504469B
:1046D000ADF806300D93CDE910320122CDE90E532D
:1046E000CDE91223CDE91433002943D0F02300F1A2
:1046F000100508AEADF80630C02341F288323146CD
:104700002846089305F086FB28B10123184684F853
:104710005C3024B070BD41F288320DF106012846AC
:1047200005F0E2FB03460028EFD105224FF480712B
:104730001E93284616924FF080721B9321931F926E
:1047400002AA9FED1F7BCDE91C13CDE922338DED2D
:10475000027B9FED1D7B41F2883316A98DED047B12
:104760009FED1B7B8DED067B05F0C0FC0028CCD1B6
:1047700024B070BD00F1100508AE612341F288320B
:1047800031462846089305F045FB0028BDD141F28B
:1047900088320DF10601284605F024FC0028B4D12A
:1047A000BDF80630204623F0780343F04003ADF80F
:1047B0000630FFF73FFF00289ED0A6E7AFF300804A
:1047C00000000000010000001000000001000000D7
:1047D00000000000000040002DE9F04F00234FF4DE
:1047E000807501264FF0807804462DED028BABB02A
:1047F0008DF8073013932193299314950E96CDF8D5
:104800005C80CDE91533CDE91863CDE91A33CDE9E4
:104810002253CDE92433CDE9273306231C9301F03D
:10482000D5F9072808D004F1100741F288321CA9F5
:10483000384605F0EFFA40B10123184684F85C30A1
:104840002BB0BDEC028BBDE8F08F4FF0020A4FF0A9
:10485000020B4FF0050941F2883308AA1CA938461B
:10486000CDF89480CDF870909FED2F8BCDE908ABFB
:104870004FF0000A4FF4800B8DED0A8BCDE90CABA5
:1048800005F034FC0028D7D141F2883238460EA911
:1048900005F0C0FA0028CFD1402341F288320DF153
:1048A000070138468DF8073005F01EFB0028C3D1FC
:1048B00041F288330EA902AA3846CDF83890CDF8D7
:1048C0005C809FED1B7BCDE906AB8DED027B9FED00
:1048D0001A7B8DED047B05F009FC03460028ABD163
:1048E000CDF870904FF00109CDF894804FF000089A
:1048F000219308AA29931CA938462295CDE9233390
:10490000CDE9273341F288338DED0A8BCDE90CAB2D
:10491000CDE9088905F0EAFB002891D0304684F8FB
:104920005C608DE7AFF30080100000000100000024
:104930004000000043000000008000000100000073
:104940002DE9F04F00234FF4807601254FF0807859
:1049500004462DED028BABB0CDE9153313932193B3
:10496000299314960E95CDF85C80CDE91853CDE9C6
:104970001A33CDE92263CDE92433CDE92733062369
:104980001C9301F023F9072808D004F1100741F225
:1049900088321CA9384605F03DFA40B1012318467B
:1049A00084F85C302BB0BDEC028BBDE8F08F4FF08B
:1049B000020A4FF0020B4FF0050941F2883308AAB2
:1049C0001CA93846CDF89480CDF870909FED308BBF
:1049D000CDE908AB4FF0000A4FF4800B8DED0A8B48
:1049E000CDE90CAB05F082FB0028D7D141F288322B
:1049F00038460EA905F00EFA0028CFD1402341F227
:104A000088320DF1070138468DF8073005F06CFA51
:104A10000028C3D19DF8073008AA0C90FF20089306
:104A20004FF400430EA90B95CDF83890CDF85C807B
:104A3000CDE909034FF4800338460D9341F28833E2
:104A400005F054FB03460028A8D1002221932993A6
:104A50001CA938462296CDF87090CDF89480CDE907
:104A60002333CDE927330123CDE9022341F28833F3
:104A700002AA8DED048BCDE906AB05F037FB0028CB
:104A800090D0284684F85C508CE700BFAFF30080DC
:104A9000100000000100000070B50122AAB0044619
:104AA0000D465F48C02103F007F800265D4B0696CF
:104AB0005B4895FAA5F5CDE90466D3F8E02042F00D
:104AC0002002C3F8E020C022D3F8E03003F0200336
:104AD00001930123019902A9CDE9022302F0E4FD2B
:104AE000142001F061FA3246C0214D4802F0E4FF83
:104AF000142001F059FA0122C021494802F0DCFFDC
:104B0000142001F051FA0123474AE6612261C4E909
:104B10000533002D77D0B5FA85F1013900234FF424
:104B2000807604F11005C4E908162846C4E90B3361
:104B300005F002F930B101231D4684F85C302846A7
:104B40002AB070BD66231690179041F288321390F8
:104B50000EA91B900E93CDE91460CDE919002846EB
:104B600005F058F90028E6D199230EA941F28832C0
:104B700028460E9305F04EF90028DCD105230121CB
:104B8000249008AA219027901C934FF08073CDE9C0
:104B90002260CDE928001020259341F28833CDE929
:104BA0000A019FED1D7B00204FF48001CDE90C012F
:104BB0001CA928468DED087B05F098FA0028BAD18B
:104BC0002046FFF7BDFE0028B5D1284605F010F9B4
:104BD00005460028AFD123790A2B18D96379012122
:104BE000994002F09BFEA3790A2B0ED80F4800EBE8
:104BF00083200126E17906FA01F102F08FFE266694
:104C000084F864609BE71F2188E70020F1E70748EC
:104C100000EB8320E2E700BF00000000010000007D
:104C2000001402580044025800500052000002587C
:104C30002DE9F041684CA2B00D46046000F0C6FFBB
:104C400007284BD028682346AA68696807C3AA8941
:104C5000184620F8042B267B677B05F0C9F800284E
:104C600034D1012E94F8643014BF4FF480154FF402
:104C700000052366002B39D0584B95FAA5F5236122
:104C80000123C4E905330023E361002D6ED0B5FA9A
:104C900085F1013900234FF480785148C4E90818A0
:104CA000C4E90B3305F048F880B966230B901390E4
:104CB00041F2883206A90693CDE90C80CDE90E00B9
:104CC000CDE91100464805F0A5F8A0B101231D4625
:104CD00084F85C30284622B0BDE8F081012503232A
:104CE000284684F85C3022B0BDE8F0812946204691
:104CF000FFF7D2FEC0E7992341F2883206A938486F
:104D0000069305F087F80028E0D105231C90199040
:104D10006A4614934FF08073219014A91D9341F2B9
:104D200088339FED277BCDE91A80CDE91F008DEDFB
:104D3000007B9FED257B2A488DED027B9FED247B38
:104D40008DED047B05F0D2F90028BFD13146224811
:104D5000FFF7B6FC0028B9D11F48FFF73DFD054617
:104D60000028B3D127B102232366B3E71F2191E7BF
:104D7000EB2300260027189014934FF440631F90F4
:104D800006AA1B934FF40053209014A917934FF4D5
:104D9000404313481C93A023CDF868801693062344
:104DA00019934FF0805321934FF04073CDE906677C
:104DB0001D9305F013FA0028D5D087E7AFF30080E4
:104DC00000000000010000001000000001000000D1
:104DD0000000000000004000301500240050005288
:104DE000401500245E4B02682DE9F0419A428CB0D8
:104DF0004FF00004CDE90744CDE909440B9402D0FB
:104E00000CB0BDE8F081574B574DD3F8D420574F25
:104E100042F48042564EDFF85C81C3F8D420D3F8C8
:104E2000D42002F480420092009ADA6F42F4804269
:104E3000DA67DA6F22F48042DA67D3F8E02042F0D2
:104E40004002C3F8E020D3F8E02002F040020192D3
:104E5000019AD3F8E02042F02002C3F8E020D3F812
:104E6000E02002F020020292029AD3F8E02042F001
:104E70001002C3F8E020D3F8E02002F01002039201
:104E8000039AD3F8E02042F00202C3F8E020D3F8FE
:104E9000E03003F002030493049B22E014F0FC02D0
:104EA00052D103F1200155F8211008780A2839D889
:104EB00091F801C00121099207EB802201FA0CF15F
:104EC00007910221CDF81480089103210A910CA9C1
:104ED0000B4413F81C3C07A9104601340B9302F055
:104EE000E3FB2A6EE3B2002AD8D0052B2CD803F1BD
:104EF0001A0255F822100A780A2A18D9497801228C
:104F00008A40022107920022CDE9081203210A916A
:104F10000CA90B4496E803000590ADF8181013F89F
:104F20001C3CD8E74878012109928140C8E74878BD
:104F3000012107EB82228140022007910021CDE967
:104F4000080103210A91E3E700225C20114601F0E9
:104F500055F85C2001F090F80CB0BDE8F08100BF7E
:104F6000005000520044025830150024000002583E
:104F70006C4201080A0A090A0268F8B5194B9A42FC
:104F800000D0F8BD184A0024184F0125D2F8D430BB
:104F9000174E23F48043C2F8D43011E014F0FC0F14
:104FA0001BD157F821301A780020597801340A2A89
:104FB00005FA01F198BF06EB822089B202F0AEFC3F
:104FC000E3B23A6E03F12001002AE7D0052B03F18A
:104FD0001A0202D857F82230E5E75C20BDE8F84015
:104FE00001F058B800500052004402583015002417
:104FF00000000258014805F07DB900BF40150024AB
:105000000E4B6FF0F4120021981C30B41C1D9D1D36
:105010009A605D671C67C3E90022C3E9181103F1B8
:105020000A0203F1080130BCC3E91A30C3E91E12B9
:10503000C3E92030C3E92212704700BF30150024B5
:1050400038B5036871B9026A00F1280500F5AC743F
:10505000012A0CBF002140218BBB1D4B5722C0F8F9
:1050600058310DE0426A00F1C00500F5E874012AEC
:105070000CBF00214021EBB1164B5A22C0F8D031B1
:1050800000232046C4E901214FF480524FF480618F
:10509000636262614FF48042C4E903314FF480736C
:1050A000C4E906234FF40033236201F059F958B1E3
:1050B000FFBEFEE7084B5822C0F8D031E0E7074BAF
:1050C0005922C0F85831DBE7C5E92044A56338BD53
:1050D00010000240700002402800024058000240C8
:1050E0002DE9F043C28889B081468388ADF800205D
:1050F0000089B9F80A10B9F80C20ADF80230D9F8D7
:105100001830ADF80400ADF80610ADF80820002BFB
:105110003FD0D9F81C70B7FA87F77F090125022321
:105120006C460DF10A06DFF870800695CDE904356E
:1051300099F8042020788242627818D0D9F80010BB
:10514000F9B1012902D1F8B10A2107910A2805FA1B
:1051500002F203A994BF08EB80200020039202F022
:10516000A3FA0234A642E3D109B0BDE8F08399F86E
:1051700005109142E2D1002FF3D0D9F80010002998
:10518000DFD106210791E1E7022A0CBF08210A219D
:10519000DBE70127C2E700BF00000258534A03685B
:1051A000934230B505468BB055D02032934252D051
:1051B0004F4A934204D02032934201D00BB030BD0D
:1051C0004C4C4D48D4F8E03043F00103C4F8E030D3
:1051D000D4F8E03003F001030593059BD4F8E030E8
:1051E00043F00803C4F8E030D4F8E03003F00803DB
:1051F0000693069BD4F8E03043F04003C4F8E03057
:10520000D4F8E03003F040030793079BD4F8F03064
:1052100043F40003C4F8F030D4F8F03003F4000392
:105220000893089BFFF75CFFD4F8D830296843F057
:1052300001032F4A3048C4F8D830891AD4F8D8303E
:1052400018BF012103F001030993099B0BB0BDE8CE
:105250003040FFF7F5BE274C2848D4F8E03043F043
:105260000103C4F8E030D4F8E03003F00103009308
:10527000009BD4F8E03043F01003C4F8E030D4F8D9
:10528000E03003F010030193019BD4F8E03043F0C9
:105290004003C4F8E030D4F8E03003F04003029358
:1052A000029BD4F8F03043F48003C4F8F030D4F813
:1052B000F03003F480030393039BFFF711FFD4F84E
:1052C000D830296843F00103084A0C48C4F8D830A4
:1052D000891AD4F8D83018BF012103F001030493D0
:1052E000049B0BB0BDE83040FFF7AABE0458014054
:1052F000045C0140004402581C180024C01500241E
:10530000014801F07FBE00BF18170024014801F0DA
:1053100079BE00BF90170024014801F073BE00BFA2
:1053200074190024014801F06DBE00BFEC1900247F
:105330001A4A0368934210B40BD02032934208D02B
:10534000174A934216D02032934213D05DF8044B93
:105350007047144B0022D3F85442C3F85822002C53
:10536000F4D0D3F84802D3E9931223465DF8044BF6
:10537000520818470B4B0022D3F8B044C3F8B424AA
:10538000002CE3D0D3F8AC24D3F8A814D3F8A404A9
:10539000520823465DF8044B184700BF04580140EB
:1053A000045C0140C0150024184A0368934210B4FD
:1053B0000BD02032934208D0154A934217D02032A6
:1053C000934214D05DF8044B7047124BD3E99424F8
:1053D0005208C3F85822002CF4D0D3E99201234696
:1053E00001EB820100EB82005DF8044B1847094B8A
:1053F000D3F8AC24D3F8B0445208C3F8B424002C3A
:10540000E0D0D3F8A814D3F8A404E8E70458014086
:10541000045C0140C01500242DE9F0470C684FF4EE
:105420001776774F86B004FB06F6012C07EB0608CB
:10543000C0F8008000F39F8000230D468E46C446CE
:10544000C8F85032C8E9923369A3D3E900236AA1AE
:10545000D1E90001CDE9022306AB03EB8403CDE9DA
:10546000040153F810AC53F8089CBEE80F00ACE8F8
:105470000F00BEE80F00ACE80F009EE80300C8F87C
:1054800028A0C8F8C0908CE803002B69042B0CD826
:10549000DFE803F078828C9603004FF41773594AC3
:1054A00003FB04739A64C3F8E020AA692B6A002AFC
:1054B00042D0002B4FF4177308BF022203FB047382
:1054C00018BF0322DA6201221A63EA696B6A002AB2
:1054D0003FD1191E4FF4177318BF012103FB04734A
:1054E000C3E931126969012943D0022947D1032553
:1054F00000214FF4177306F128002A46019103FB9F
:105500000473002438445C645C63DC65C3F8DC40ED
:10551000C3F8CC40C3F8F440C3E90F44C3E91544D1
:10552000C3E93544C3E93B44022307F0E9FA019992
:1055300000284FD0FFBEFEE7191E4FF4177318BFA7
:10554000012103FB0473C3E90B12EA696B6A002AA9
:10555000BFD0002B4FF417730CBF0222032203FBB2
:105560000473C3F8C4200122C3F8C8206969012963
:10557000BBD10225BDE7012006B0BDE8F0870025BC
:105580002946B6E74FF417734FF4FA5203FB04733E
:105590009A64C3F8E02088E74FF417734FF47A5207
:1055A00003FB04739A64C3F8E0207EE74FF417739B
:1055B0004FF4FA4203FB04739A64C3F8E02074E7E3
:1055C0004FF417734BF6803203FB04739A64C3F8ED
:1055D000E0206AE706F1C00002232A46384407F0BB
:1055E0008FFA0028C8D0FFBEFEE700BFAFF30080EF
:1055F00004580140045C014024580140245C0140EF
:10560000C0150024007701000068704770B5046879
:1056100082B015460E46C4F85032C4E99212069A7A
:10562000C4F85422A269012A26D0626A012A9AB2D9
:1056300011D0294604F1C000019207F01BFB236A38
:10564000019A012B10D0294604F1280007F012FB23
:10565000002002B070BD04F1C000019207F09CFB75
:10566000236A019A012BEED1314604F1280007F09C
:1056700093FB002002B070BD226A012A9AB211D0B9
:10568000294604F12800019207F0F4FA636A019AAE
:10569000012B10D0294604F1C00007F0EBFA0020DE
:1056A00002B070BD04F12800019207F075FB636A37
:1056B000019A012BEED1314604F1C00007F06CFBDA
:1056C000002002B070BD00BF03681B69042B05D821
:1056D000044A02EB830393ED000A70479FED020A30
:1056E000704700BF7442010800803B470368D3F84D
:1056F00058027047064B6FF0F4124FF60B71C3E976
:1057000001229981A3F86812C3E99822704700BF6B
:10571000C0150024704700BF08B500F033FCBDE899
:10572000084000F033BD00BF064808B503680BB160
:1057300002F0C6F9044803681BB1BDE8084003F055
:1057400057BB08BD901F0024801A0024064808B5E6
:1057500003680BB102F0B4F9044803681BB1BDE85B
:10576000084003F045BB08BD901F0024801A0024A8
:10577000064808B503680BB102F0A2F904480368B3
:105780001BB1BDE8084003F033BB08BD901F0024E7
:10579000801A0024364BDA6A520062D59A6A9A6AF5
:1057A0009A6A9B6A180600D500BE314B9B6A99061F
:1057B00000D500BE2E4B9B6ADA0600D500BE2C4BEE
:1057C0009B6A1B0700D500BE294B9B6A980700D532
:1057D00000BE274B9B6AD90700D500BE244B9B6AAD
:1057E0001A0400D500BE224B9B6A9B0400D500BE64
:1057F0001F4B9B6AD80400D500BE1D4B9B6A190540
:1058000000D500BE1A4B9B6A5A0500D500BE184B46
:105810009B6A9B0500D500BE154B9B6AD80500D539
:1058200000BE134B9B6A990100D500BE104B9B6ACA
:10583000DA0100D500BE0E4B9B6A1B0300D500BEEB
:105840000B4B9B6A580300D500BE094B9B6A99031A
:1058500000D500BE064B9B6ADA0306D400BE00BE2C
:10586000FEE7DB6A9B07FAD5F8E700BEF6E700BF64
:1058700000ED00E000F098BB0A4B9B6803F1784311
:10588000B3F5003F0BD3084B986848B198680128DE
:1058900006D09868022803D09B6803207047012037
:1058A000704700BF00ED00E00000803800000000FD
:1058B0002DE9F041CEB004464C2200210AA80EF09A
:1058C00033F82022002102A80EF02EF8C022002179
:1058D0001EA80EF029F8022004F048F92368012BD5
:1058E0004FF0000354D0584A02250193C820D16AD2
:1058F000564B21F00101D162D26A02F001020192FD
:105900009A6942F440429A619B6903F440430193CF
:10591000019B4E4A93699B04FCD54D490224002209
:1059200001268B6A04274FF0080823F00303234362
:105930008B62052316900AA818934FF480331096B3
:10594000179419941597CDF86880CDE91B22212270
:10595000CDE91344CDE90A2304F06CFE00B1FEE763
:105960003F220323294602A8CDE90223002208236F
:10597000CDE9042340224023CDE9062340234FF400
:105980008062CDE9082305F0EFF90346B8B1FEE7E0
:105990002E4A04250093F02091692B4B41F440419D
:1059A0009161926902F440420092DA6A42F0010287
:1059B000DA62DB6A03F001030093009BA9E720226F
:1059C00026932E9380212C924FF4805231930625FA
:1059D0003F931EA8279236924FF4803225914FF4C0
:1059E0004011329247920022289580254091102143
:1059F000CDF888802B9720962A91CDE92F3440F25C
:105A0000271329934FF480632D930023CDE9234678
:105A1000CDE93C234FF480740C2344940224219359
:105A200007A3D3E90023CDE93445CDE91E2305F0D2
:105A300087FC00B1FEE704F0BDF84EB0BDE8F08190
:105A40000F130F0300000000000400580048025824
:105A50000044025870B584B0012400F045FB4FF4B7
:105A600080764FF04052194B68460025ADF8004053
:105A70000396CDE9012300F055FB19224FF0404376
:105A800068468DF8082001938DF80F40ADF80D6041
:105A90008DF801408DF80A5000F044FB02230B22E0
:105AA00068468DF80F508DF801304FF062538DF835
:105AB00008200193ADF80D408DF80A4000F032FB4C
:105AC000042000F01FFB04B070BD00BF0E000103F6
:105AD00030B50D46044685B0D1E9000184E80300E5
